:100BAA0070726573732073746172742000746F209D
:100BBA00696E6974696174650057454C434F4D45C8
:100BCA00212100707265737320616E79206B6579DB
:100BDA0000746F20766F74650042414C00424E509B
:100BEA00004A5000575042007468616E6B20796F5A
:100BFA007521210077696E7300636C6173682062E6
:070C0A0065747765656E005B
:100A6900E4F5A0C294C293C292C291F512F513F5AE
:100A790010F511F50EF50FF50CF50DC295C2901292
:100A89000CD07BFF7A0B79AA120CA67FC0120D55E8
:100A99007BFF7A0B79B7120CA63090FD7F84120D7B
:100AA900557F01120D557BFF7A0B79C3120CA67F76
:100AB900C87E00120D007F01120D557BFF7A0B795C
:100AC900CD120CA67FC0120D557BFF7A0B79DB1274
:100AD9000CA67FC87E00120D007F01120D55120C65
:100AE900A0120D227F84120D557BFF7A0B79E71234
:100AF9000CA6120D227F88120D557BFF7A0B79EB1C
:100B0900120CA6120D227F8C120D557BFF7A0B79E0
:100B1900EE120CA6120C677F01120D557F80120D83
:100B2900557BFF7A0B79F2120CA6120CFC120D38C8
:030B3900020AA20B
:100D380020911120920E20930B20940830950512D3
:050D4800080080FB2201
:10080000E4F514F515F516F5177F01120D55120CC8
:10081000A0120D227F84120D557BFF7A0B79E7120F
:100820000CA6120D227F88120D557BFF7A0B79EBF7
:10083000120CA6120D227F8C120D557BFF7A0B79BC
:10084000EE120CA67FC0120D55AF0DAE0C120C119E
:100850007FC4120D55AF0FAE0E120C117FC8120DD2
:1008600055AF11AE10120C117FCC120D55AF13AE57
:1008700012120C11D3E50D9515E50C951440068563
:100880000C14850D15D3E50F9515E50E951440064E
:10089000850E14850F15D3E5119515E510951440B7
:1008A00006851014851115D3E5139515E5129514D9
:1008B0004006851214851315120CFCE515650D70A4
:1008C00004E514650C7040E515650F7004E51465CA
:1008D0000E6034E51565117004E51465106028E5B7
:1008E0001565137004E5146512601C120D4D7F80B0
:1008F000120D55120CA07FC5120D557BFF7A0B7996
:10090000FE120CA6120CFCE515650F7004E51465CB
:100910000E7046E515650D7004E514650C603AE54A
:100920001565117004E5146510602EE515651370EA
:1009300004E51465126022120D4D7F80120D557B67
:10094000FF7A0B79E7120CA67FC5120D557BFF7A53
:100950000B79FE120CA6120CFCE51565117004E56E
:100960001465107046E515650F7004E514650E609A
:100970003AE515650D7004E514650C602EE5156506
:10098000137004E51465126022120D4D7F80120D64
:10099000557BFF7A0B79EB120CA67FC5120D557BA8
:1009A000FF7A0B79FE120CA6120CFCE5156513708C
:1009B00004E51465127046E515650F7004E51465CD
:1009C0000E603AE515650D7004E514650C602EE5C2
:1009D0001565117004E51465106022120D4D7F80BD
:1009E000120D557BFF7A0B79EE120CA67FC5120D06
:1009F000557BFF7A0B79FE120CA6120CFCE517450D
:100A00001670657F01120D557F80120D557BFF7AA0
:100A10000C7903120CA67FC0120D55E515B50D0813
:100A2000E514B50C03120CA0E515B50F0EE514B5D1
:100A30000E097BFF7A0B79E7120CA6E515B5110EAE
:100A4000E514B510097BFF7A0B79EB120CA6E515BE
:100A5000B5130EE514B512097BFF7A0B79EE120C73
:080A6000A67FC87E00120D0004
:010A6800226B
:040C11008E188F1991
:100C1500E4FBFAAE18AF197C007D0A120B55740877
:100C25002BF8A605AE18AF197C007D0A120B558E60
:100C3500188F190BBB00010AEB64034A70D5751AAE
:100C450000751B027408251BF8E62430FF120D61A0
:100C5500E51B151B7002151AC3E51A6480948050B4
:010C6500E3AB
:010C6600226B
:100C67002091092092062093033094F430910805CF
:100C77000DE50D7002050C309208050FE50F7002A7
:100C8700050E3093080511E5117002051030940820
:090C97000513E513700205122299
:060D2000D2B27FF47E0157
:100D2600E4FDFCC3ED9FEC9E50070DBD00010C8059
:010D3600F2CA
:010D37002299
:040CFC007FF47E0102
:100D0000E4FDFCC3ED9FEC9E5015E4FBFA0BBB0029
:0F0D1000010ABA04F8BBFBF50DBD00010C80E42D
:010D1F0022B1
:100CD0007F38120D55120D227F01120D55120D2273
:100CE0007F0C120D55120D227F80120D55120D2210
:0C0CF0007F0E120D557FF47E01020D26D0
:080D4D007516007517017F0106
:0C0D55008FA0C2B1C2B0120D20C2B222A9
:060CA0007BFF7A0B79E3F3
:100CA6008B188A19891AAB18AA19A91A120B3CFFB4
:100CB6006017120D617FD07E07120D267401251A6A
:0A0CC600F51AE43519F51980DD2256
:0C0D61008FA0D2B0C2B1120D20C2B2228D
:03000000020D6D81
:0C0D6D00787FE4F6D8FD75811B020A694E
:100B3C00BB010689828A83E0225002E722BBFE02B7
:090B4C00E32289828A83E49322EA
:100B5500BC000BBE0029EF8DF084FFADF022E4CC84
:100B6500F875F008EF2FFFEE33FEEC33FCEE9DEC4D
:100B7500984005FCEE9DFE0FD5F0E9E4CEFD22ED93
:100B8500F8F5F0EE8420D21CFEADF075F008EF2FDD
:100B9500FFED33FD4007985006D5F0F222C398FDCE
:050BA5000FD5F0EA226B
:00000001FF
